:020000040800F2
:1000000000000220FD240008E9090008EB090008AF
:10001000ED090008EF090008F109000800000000E0
:10002000000000000000000000000000F3090008CC
:10003000F509000800000000F7090008F9090008A8
:100040004D2500084D2500084D2500084D250008C8
:100050004D2500084D2500084D2500084D250008B8
:100060004D2500084D2500084D2500084D250008A8
:100070004D2500084D2500084D2500084D25000898
:100080004D2500084D2500084D2500084D25000888
:100090004D2500084D2500084D2500084D25000878
:1000A0004D2500084D2500084D2500084D25000868
:1000B0004D2500084D2500084D2500084D25000858
:1000C0004D2500084D2500084D2500084D25000848
:1000D0004D250008310A00084D2500084D2500086F
:1000E0004D2500084D2500084D2500084D25000828
:1000F0004D2500084D2500084D2500084D25000818
:100100004D2500084D2500084D2500084D25000807
:100110004D2500084D2500084D2500084D250008F7
:100120004D2500084D2500084D2500084D250008E7
:100130004D2500084D2500084D2500084D250008D7
:100140004D2500084D2500084D2500084D250008C7
:100150004D2500084D2500084D2500084D250008B7
:100160004D2500084D2500084D2500084D250008A7
:100170004D2500084D2500084D2500080000000011
:080180004D2500084D25000883
:1001900010B5054C237833B9044B13B10448AFF3C1
:1001A00000800123237010BD8800002000000000A3
:1001B000082E000808B5034B1BB103490348AFF3F1
:1001C000008008BD000000008C000020082E000800
:1001D000EC46A0E8F05F4FF000007047B0E8F05F39
:1001E000E546080008BF0120704700BF000000007E
:1001F00001F0FF01102A2BDB10F0070F08D010F8D8
:10020000013B013A8B422DD010F0070F42B3F6D1DB
:10021000F0B441EA012141EA014122F007047FF0F4
:1002200000070023F0E80256083C85EA010586EA4B
:10023000010685FA47F5A3FA87F586FA47F6A5FA87
:1002400087F68EB9EED1F0BC01F0FF0102F0070293
:1002500032B110F8013B013A83EA010313B1F8D13E
:100260000020704701387047002D06BF354603381F
:10027000073815F0010F07D1013015F4807F02BF58
:10028000013015F4C03F0130F0BC0138704700BFA9
:1002900053B94AB9002908BF00281CBF4FF0FF31ED
:1002A0004FF0FF3000F074B9ADF1080C6DE904CEE9
:1002B00000F006F8DDF804E0DDE9022304B0704741
:1002C0002DE9F047089D04468E46002B4DD18A4209
:1002D000944669D9B2FA82F252B101FA02F3C2F13C
:1002E000200120FA01F10CFA02FC41EA030E9440CD
:1002F0004FEA1C48210CBEFBF8F61FFA8CF708FBEE
:1003000016E341EA034306FB07F199420AD91CEBC5
:10031000030306F1FF3080F01F81994240F21C81F7
:10032000023E63445B1AA4B2B3FBF8F008FB10333F
:1003300044EA034400FB07F7A7420AD91CEB040474
:1003400000F1FF3380F00A81A74240F20781644444
:10035000023840EA0640E41B00261DB1D4400023C9
:10036000C5E900433146BDE8F0878B4209D9002D2D
:1003700000F0EF800026C5E9000130463146BDE8B7
:10038000F087B3FA83F6002E4AD18B4202D3824221
:1003900000F2F980841A61EB030301209E46002DD0
:1003A000E0D0C5E9004EDDE702B9FFDEB2FA82F225
:1003B000002A40F09280A1EB0C014FEA1C471FFA83
:1003C0008CFE0126200CB1FBF7F307FB131140EA6A
:1003D00001410EFB03F0884208D91CEB010103F137
:1003E000FF3802D2884200F2CB804346091AA4B2F9
:1003F000B1FBF7F007FB101144EA01440EFB00FECD
:10040000A64508D91CEB040400F1FF3102D2A64531
:1004100000F2BB800846A4EB0E0440EA03409CE7D0
:10042000C6F12007B34022FA07FC4CEA030C20FA7D
:1004300007F401FA06F31C43F9404FEA1C4900FA9D
:1004400006F3B1FBF9F8200C1FFA8CFE09FB18111A
:1004500040EA014108FB0EF0884202FA06F20BD98D
:100460001CEB010108F1FF3A80F08880884240F2DD
:100470008580A8F102086144091AA4B2B1FBF9F021
:1004800009FB101144EA014100FB0EFE8E4508D91C
:100490001CEB010100F1FF346CD28E456AD90238A1
:1004A000614440EA0840A0FB0294A1EB0E01A14286
:1004B000C846A64656D353D05DB1B3EB080261EBF4
:1004C0000E0101FA07F722FA06F3F1401F43C5E9CE
:1004D000007100263146BDE8F087C2F12003D84004
:1004E0000CFA02FC21FA03F3914001434FEA1C4746
:1004F0001FFA8CFEB3FBF7F007FB10360B0C43EA38
:10050000064300FB0EF69E4204FA02F408D91CEBE7
:10051000030300F1FF382FD29E422DD902386344E5
:100520009B1B89B2B3FBF7F607FB163341EA034185
:1005300006FB0EF38B4208D91CEB010106F1FF38D4
:1005400016D28B4214D9023E6144C91A46EA0046CB
:1005500038E72E46284605E70646E3E61846F8E65D
:100560004B45A9D2B9EB020864EB0C0E0138A3E7A6
:100570004646EAE7204694E74046D1E7D0467BE787
:10058000023B614432E7304609E76444023842E7FF
:10059000704700BF30B589B00024039404940594DB
:1005A000069407940194134B1A6B42F080021A636D
:1005B0001A6B02F080020192019A02941A6B42F0C7
:1005C00001021A631B6B03F001030293029B0A4DA5
:1005D00022464021284600F0E5FE402303930123F4
:1005E00004930594069403A9284600F0E9FD09B098
:1005F00030BD00BF003802400000024000B583B0AB
:100600008DF807000A2301220DF10701024801F0CD
:100610007CF903B05DF804FBA80100200FB430B5ED
:10062000ADF20C4D0DF5836252F8041B019202A845
:1006300001F0D6FF0546002407E00A23012202A9A3
:100640002144064801F061F90134AC42F5DB28464B
:100650000DF20C4DBDE8304004B07047F0010020B1
:1006600000B583B08DF807000A2301220DF10701C0
:10067000024801F04AF903B05DF804FBF0010020E4
:10068000084470472DE9F04182B04FF000081CE0AB
:1006900008EB040621464046FFF7F2FF0546142703
:1006A000009740F26F1300220146304601F0CEFC65
:1006B00000974FF4B87300222946701C01F0C6FC65
:1006C0000134082CE4DD08F10108B8F1080F01DC61
:1006D0000024F6E702B0BDE8F081704770470000E3
:1006E00008B50C4B46221A800B4B18780B4A13881E
:1006F0000B49C854138801339BB21380FF2B02D9D6
:10070000134600221A8001220349064801F04DFBDE
:1007100008BD00BF02000020A401002050020020FC
:10072000A4000020A80100202B4B1B7803B97047C0
:1007300010B5C4B00021284B19700491FC2205A803
:1007400001F030FF254B1A8803AB0392009304ABF2
:100750002349244801F058FE0446B8B904A92248A8
:10076000FFF75CFF04E004AB185DFFF779FF01348D
:100770001A4B1B88A342F6DC0021184B19804FF45A
:100780008072174801F00EFF44B010BD01461748B3
:10079000FFF744FF114B19881548FFF73FFF00246E
:1007A00005E00F4B195D1348FFF738FF01340B4B81
:1007B0001B88A342F5DC03990F48FFF72FFF0024A5
:1007C00005E004AB195D0B48FFF728FF0134039BDC
:1007D000A342F6DCD0E700BF380200205002002020
:1007E000A40000203C020020202E0008342E000827
:1007F000502E0008642E0008702E000872B6FEE726
:1008000008B50A480A4B03604FF4E1334360002304
:100810008360C36003610C2242618361C36101F0A4
:1008200044F800B908BDFFF7E9FF00BFA8010020A8
:100830000010014008B50A480A4B03604FF4E13349
:10084000436000238360C36003610C2242618361C3
:10085000C36101F02AF800B908BDFFF7CFFF00BF60
:10086000F00100200044004000B595B03022002186
:1008700008A801F097FE00230393049305930693C1
:10088000079301931E4A116C41F080511164126C60
:1008900002F080520192019A02931A4B1A6842F4B4
:1008A00080421A601B6803F480430293029B012379
:1008B00008934FF48033099302230E934FF480037F
:1008C0000F9304231093902211921293139308A86C
:1008D00000F03AF980B90F23039302210491002319
:1008E00005934FF480520692079303A800F092FB01
:1008F00020B915B05DF804FBFFF780FFFFF77EFF1E
:10090000003802400070004030B5C9B000F048FE29
:10091000FFF7AAFFFFF73EFEFFF772FFFFF78AFF20
:100920002748FFF77BFE01222649274801F03DFAC0
:10093000264801F0E7FB78222549264801F0BCFB58
:1009400001F0F0FB244801F035FC00248DF81C4137
:100950009DF81D3164F302038DF81D311F4A44AB2D
:1009600007CA03C31A7003AB009304AB092244A95E
:1009700047A801F059FD07E004AD285DFFF770FEC0
:10098000285DFFF73BFE0134039BA342F4DC01E04A
:10099000FFF7CAFE124B1B88002BF9D140211148EA
:1009A00000F006FD0E4B4FF47A721A800024039B70
:1009B000A342EDDD04AB185DFFF720FE0134F6E73E
:1009C000982E0008A4010020A8010020AC2E0008E9
:1009D000BC2E0008850600083C020020C82E000836
:1009E0000000002000000240FEE7FEE7FEE7FEE711
:1009F000FEE770477047704708B500F0EBFD094B04
:100A00001B883BB1013B9BB2064A138013B9064BCE
:100A100001221A70054B1B8813B1013B034A138056
:100A200008BD00BF020000203802002000000020A6
:100A300008B5024801F05AF808BD00BFA80100201F
:100A400082B0002100910B4B5A6C42F480425A64F0
:100A50005A6C02F480420092009A01911A6C42F0A2
:100A600080521A641B6C03F080530193019B02B007
:100A7000704700BF0038024010B58AB000230593CC
:100A8000069307930893099303682B4A934204D073
:100A90002A4A93422DD00AB010BD00240194284B5D
:100AA0005A6C42F010025A645A6C02F01002019221
:100AB000019A02941A6B42F001021A631B6B03F055
:100AC00001030293029B4FF4C06305930223069334
:100AD000032308930723099305A91A4800F070FB24
:100AE00022460121252000F0DBFC252000F010FD2E
:100AF000D1E700210391124B1A6C42F400321A64C0
:100B00001A6C02F400320392039A04911A6B42F0B9
:100B100001021A631B6B03F001030493049B0C2373
:100B2000059302230693032308930723099305A93A
:100B3000044800F045FBAEE70010014000440040CF
:100B40000038024000000240002800F0E08170B54B
:100B500082B00446036813F0010F3BD09F4B9B68A3
:100B600003F00C03042B2CD09C4B9B6803F00C036C
:100B7000082B21D06368B3F5803F4FD0B3F5A02F89
:100B800052D0964B1A6822F480321A601A6822F406
:100B900080221A606368002B50D000F027FD0546C4
:100BA0008E4B1B6813F4003F14D100F01FFD401B57
:100BB0006428F5D90320B1E1884B5B6813F4800FFA
:100BC000D8D0864B1B6813F4003F03D06368002B1A
:100BD00000F09F81236813F0020F54D07F4B9B6875
:100BE00013F00C0F3ED07D4B9B6803F00C03082BD9
:100BF00033D0E368002B68D0794B01221A6000F0F3
:100C0000F5FC0546754B1B6813F0020F54D100F03C
:100C1000EDFC401B0228F5D903207FE16F4A1368E1
:100C200043F480331360B5E76C4B1A6842F48022BA
:100C30001A601A6842F480321A60ABE700F0D6FC02
:100C40000546664B1B6813F4003FC3D000F0CEFC92
:100C5000401B6428F5D9032060E1604B5B6813F406
:100C6000800FC6D15D4B1B6813F0020F03D0E36801
:100C7000012B40F05081594A136823F0F803216991
:100C800043EAC1031360236813F0080F42D063697D
:100C90006BB3534B0122C3F8802E00F0A7FC05462E
:100CA0004E4B5B6F13F0020F34D100F09FFC401BE2
:100CB0000228F5D9032031E1484A136823F0F803EC
:100CC000216943EAC1031360DDE7454B00221A6046
:100CD00000F08CFC0546414B1B6813F0020FD2D08C
:100CE00000F084FC401B0228F5D9032016E13C4BA0
:100CF0000022C3F8802E00F079FC0546374B5B6F6D
:100D000013F0020F06D000F071FC401B0228F5D949
:100D1000032003E1236813F0040F77D02F4B1B6CE3
:100D200013F0805F33D1002301932C4B1A6C42F0F7
:100D300080521A641B6C03F080530193019B0125C0
:100D4000284B1B6813F4807F23D0A368012B34D079
:100D5000052B38D0214B1A6F22F001021A671A6F47
:100D600022F004021A67A368002B3DD000F03EFC7D
:100D700006461A4B1B6F13F0020F46D100F036FCEB
:100D8000801B41F288339842F3D90320C6E0002546
:100D9000D6E7144A136843F48073136000F026FC0E
:100DA0000646104B1B6813F4807FCED100F01EFC6A
:100DB000801B0228F5D90320B0E0084A136F43F0E6
:100DC00001031367CFE7054B1A6F42F004021A675D
:100DD0001A6F42F001021A67C5E700BF00380240EF
:100DE000000047420070004000F000FC0646524BF5
:100DF0001B6F13F0020F08D000F0F8FB801B41F2CC
:100E000088339842F3D9032088E0EDB9A369002B19
:100E100000F08380484A926802F00C02082A51D000
:100E2000022B17D0454B00221A6600F0DFFB044668
:100E3000414B1B6813F0007F42D000F0D7FB001B32
:100E40000228F5D9032069E03B4A136C23F0805354
:100E50001364DBE7394B00221A6600F0C7FB054636
:100E6000354B1B6813F0007F06D000F0BFFB401B22
:100E70000228F5D9032051E0E369226A1343626A2C
:100E800043EA8213A26A5208013A43EA0243E26A41
:100E900043EA0263284A5360284B01221A6600F095
:100EA000A5FB0446244B1B6813F0007F06D100F01D
:100EB0009DFB001B0228F5D903202FE000202DE028
:100EC00000202BE0012B2BD01B4B5B6803F480012F
:100ED000E269914226D103F03F02216A8A4223D17E
:100EE000616A47F6C0721A40B2EB811F1ED103F44B
:100EF0004031A26A5208013AB1EB024F18D103F017
:100F00007063E26AB3EB026F14D1002006E00120A7
:100F10007047012002E0012000E0002002B070BD17
:100F20000120FBE70120F9E70120F7E70120F5E7C1
:100F30000120F3E70120F1E70038024000004742BA
:100F400008B5314B9B6803F00C03042B57D0082BDA
:100F500057D12D4B5A6802F03F025B6813F4800FA3
:100F60002AD0294B5968C1F3881C4FEA4C11B1EBC8
:100F70000C006EEB0E0E4FEA8E1343EA9063810174
:100F8000091A63EB0E03DB0043EA5173C90011EB4E
:100F90000C0C43F10003590200234FEA4C2041EAB4
:100FA000DC51FFF775F9184B5B68C3F3014301335C
:100FB0005B00B0FBF3F025E0134B5968C1F3881CCC
:100FC0004FEA4C11B1EB0C006EEB0E0E4FEA8E1394
:100FD00043EA90638101091A63EB0E03DB0043EAE5
:100FE0005173C90011EB0C0C43F10003990200236B
:100FF0004FEA8C2041EA9C51FFF74AF9D3E70348B6
:1010000000E0034808BD00BF0038024000127A002B
:101010000024F400002800F09B8070B50D460446C3
:101020004F4B1B6803F007038B4208D2CBB24C4AEC
:101030001370136803F007038B4240F08B80236822
:1010400013F0020F17D013F0040F04D0454A936831
:1010500043F4E0539360236813F0080F04D0414A2F
:10106000936843F4604393603E4A936823F0F0032F
:10107000A1680B439360236813F0010F32D06368BB
:10108000012B21D09A1E012A25D9364A126812F066
:10109000020F61D033498A6822F0030213438B6048
:1010A00000F0A4FA06462F4B9B6803F00C0362681D
:1010B000B3EB820F16D000F099FA801B41F288330F
:1010C0009842F0D9032042E0264A126812F4003F09
:1010D000E0D101203BE0234A126812F0007FD9D111
:1010E000012034E01E4B1B6803F00703AB4207D915
:1010F000EAB21B4B1A701B6803F00703AB422DD1F9
:10110000236813F0040F06D0164A936823F4E053C3
:10111000E1680B439360236813F0080F07D0114A6E
:10112000936823F46043216943EAC1039360FFF7A6
:1011300007FF0C4B9B68C3F303130B4AD35CD840E7
:101140000A4B18600A4B186800F004FA002070BDC2
:10115000012070470120FAE70120F8E70120F6E7B7
:10116000003C024000380240D42E00080C00002051
:1011700008000020014B1868704700BF0C000020D9
:1011800008B5FFF7F7FF044B9B68C3F38223034ABC
:10119000D35CD84008BD00BF00380240E42E0008F0
:1011A00008B5FFF7E7FF044B9B68C3F34233034ADC
:1011B000D35CD84008BD00BF00380240E42E0008D0
:1011C00000230F2B00F2E48070B582B060E08568E8
:1011D0005E000324B44025EA0405CC68B4402C43E7
:1011E0008460456825EA02054C68C4F300129A4001
:1011F0002A4342605AE0DC08083450F8246003F0C7
:10120000070295000F22AA4026EA020E0A69AA40A8
:1012100042EA0E0240F824205CE0072200E00022AF
:1012200002FA0EF22A4302345A4D45F824205A4A53
:1012300094686FEA0C0224EA0C054E6816F4801FCD
:1012400001D04CEA0405544CA560E46802EA0405A8
:101250004E6816F4001F01D04CEA04054E4CE560C0
:10126000646802EA04054E6816F4003F01D04CEAB7
:101270000405494C6560246822404D6815F4803FA0
:1012800001D04CEA0402444C226001330F2B7DD87C
:1012900001229A400C6804EA020C32EA0404F4D1F8
:1012A0004C6804F00304013C012C90D94A6802F018
:1012B0000302032A09D0C4685D000322AA4024EA7D
:1012C00002048A68AA402243C2604A6802F003020C
:1012D000022A90D004684FEA430E032202FA0EF26B
:1012E00024EA02044A6802F0030202FA0EF22243E0
:1012F00002604A6812F4403FC7D000220192274A98
:10130000546C44F480445464526C02F48042019260
:10131000019A9C08A51C1F4A52F8255003F00302AD
:101320004FEA820E0F2202FA0EF225EA02051C4A4B
:1013300090423FF474AF02F5806290421AD002F5F9
:101340008062904218D002F58062904216D002F579
:101350008062904214D002F58062904212D002F571
:101360008062904210D002F5806290423FF455AF07
:10137000082255E7012253E7022251E703224FE7F3
:1013800004224DE705224BE7062249E702B070BD73
:10139000704700BF00380140003C01400038024067
:1013A000000002400AB18161704709048161704701
:1013B000436901EA030221EA030141EA0241816132
:1013C000704770B50446866D00F010F994F835301A
:1013D000DBB2022B06D080236365002384F834300F
:1013E000012070BD05462268136823F016031360C0
:1013F0002268536923F080035361236CE3B12268B0
:10140000136823F0080313602268136823F00103B4
:10141000136023681B6813F0010F11D000F0E6F889
:10142000431B052BF5D920236365032084F8350081
:10143000002384F83430D4E7A36C002BDFD1E3E73A
:10144000E26D3F239340B360012384F835300020E0
:1014500084F83400C5E790F83530DBB2022B03D0B6
:101460008023436501207047052380F835300268EA
:10147000136823F00103136000207047074AD36804
:1014800023F4E0631B041B0C000200F4E060034340
:1014900043F0BF6343F40033D360704700ED00E0D6
:1014A00000B5194BDB68C3F30223C3F1070CBCF191
:1014B000040F28BF4FF0040C03F1040EBEF1060F19
:1014C00018D9033B4FF0FF3E0EFA0CFC21EA0C0149
:1014D00099400EFA03F322EA0303194300280BDBB9
:1014E0000901C9B200F1604000F5614080F80013C5
:1014F0005DF804FB0023E5E700F00F000901C9B225
:10150000024B1954F4E700BF00ED00E014ED00E0D9
:10151000002807DB00F01F02400901239340024A24
:1015200042F82030704700BF00E100E00138B0F120
:10153000807F0BD24FF0E0235861054AF02182F8FA
:1015400023100020986107221A617047012070471C
:1015500000ED00E010B504460E4B18784FF47A7396
:10156000B3FBF0F30C4A1068B0FBF3F0FFF7DEFFBB
:1015700068B90F2C01D901200AE0002221464FF062
:10158000FF30FFF78DFF054B1C60002000E00120BD
:1015900010BD00BF040000200C0000200800002047
:1015A00008B50B4B1A6842F400721A601A6842F4CC
:1015B00080621A601A6842F480721A600320FFF792
:1015C0005DFF0F20FFF7C6FFFFF73AFA002008BDC6
:1015D000003C0240034A1168034B1B780B44136024
:1015E000704700BF5402002004000020014B18681F
:1015F000704700BF54020020034AD2F8883043F4F9
:101600007003C2F88830704700ED00E010B5034663
:101610000C4A0D490D48006840B10C48006803446D
:10162000521A934206D8094A136010BD0748084C65
:101630000460F2E700F08CFF0C2303604FF0FF30F2
:10164000F3E700BF00000220000400005802002061
:10165000F0020020026802F10C0353E8003F23F47B
:1016600090730C3242E800310029F3D1026802F194
:10167000140353E8003F23F00103143242E8003121
:101680000029F3D1036B012B05D0202380F84230D1
:10169000002303637047026802F10C0353E8003F24
:1016A00023F010030C3242E800310029F3D1ECE7BB
:1016B00090F84130DBB2212B01D0022070478368C3
:1016C000B3F5805F17D0036A5A1C02621A78036868
:1016D0005A60C38C9BB2013B9BB2C3844BB9026876
:1016E000D36823F08003D3600268D36843F04003DB
:1016F000D360002070470369002BE4D1036A1B8884
:101700000268C3F308035360036A02330362E0E72D
:1017100038B504460268136923F44053C1680B438B
:10172000136183680269134342691343C2691A4310
:101730000168CB6823F4164323F00C031343CB60FA
:101740000268536923F4407381690B435361036852
:10175000314A934206D002F58062934202D0FFF7ED
:101760000FFD01E0FFF71CFDE369B3F5004F29D041
:101770000021031849411B1841F10001C90041EA49
:101780005371DB00181863684FEA83024FEA9373C2
:1017900041F10001FEF77CFD204DA5FB003251090F
:1017A000642303FB11031B013233A5FB03235B09F5
:1017B00003F0F00202EB011203F00F03216813445F
:1017C0008B6038BD0023021843EB0301121841F16E
:1017D0000001C90041EA5271D200101841F1000124
:1017E000626892185B41FEF753FD0C4DA5FB003279
:1017F0005109642303FB1103DB003233A5FB0323F0
:101800005B095A0002F4F87202EB011203F00703BD
:10181000216813448B60D4E7001001401F85EB5111
:101820002DE9F04383B005460E4617469946DDF88C
:1018300028802C68246836EA04030CBF4FF0010CA2
:101840004FF0000CBC4528D1B8F1FF3FF1D0FFF7B5
:10185000CDFEA0EB0900404523D8B8F1000F22D0FF
:101860002B68DA6812F0040FE3D0802EE1D0402E0E
:10187000DFD01A6812F0080FDBD0002401941A6838
:1018800001925B680193019B2846FFF7E3FE082362
:101890006B6485F84040012000E0002003B0BDE803
:1018A000F0830320FAE70320F8E760B310B504469D
:1018B00090F8413013B3242384F841302268D36870
:1018C00023F40053D3602046FFF722FF22681369F8
:1018D00023F4904313612268536923F02A03536170
:1018E0002268D36843F40053D3600020606420234F
:1018F00084F8413084F84230606310BD80F8403095
:10190000FFF7BAF8D7E7012070472DE9F04182B020
:101910001E4690F84130DBB2202B56D104460D46CE
:101920009046002955D00AB901204FE000234364B6
:10193000212380F84130FFF759FE0746A4F82480A0
:10194000A4F82680A368B3F5805F02D04FF00008AA
:1019500014E023692BB34FF000080FE0202384F834
:101960004130032032E038F8023B2268C3F3080319
:101970005360E28C92B2013A92B2E284E38C9BB261
:1019800093B100963B46002280212046FFF748FF96
:101990000028E3D1002DE6D015F8012B23685A600A
:1019A000E7E7A8460025E9E700963B4600224021EC
:1019B0002046FFF735FF18B9202384F8413005E0B1
:1019C000202384F84130032000E0022002B0BDE86B
:1019D000F0810120FAE7704708B50168CA6822F073
:1019E0004002CA60202280F84120FFF7F4FF002067
:1019F00008BD704708B5806B0023C385C384FFF71B
:101A0000F8FF08BD704790F84230DBB2222B69D155
:101A10008368B3F5805F4FD0826AB3F5805F04D0EE
:101A2000002B56D10369002B53D103685B681370F8
:101A3000836A01338362C38D9BB2013B9BB2C38532
:101A4000002B51D100B583B00268D36823F0200386
:101A5000D3600268D36823F48073D360026853694B
:101A600023F001035361202380F8423000234363B5
:101A7000036B012B33D100230363026802F10C03D3
:101A800053E8003F23F010030C3242E800310029F4
:101A9000F3D103681A6812F0100F06D000220192E9
:101AA0001A6801925B680193019B818DFFF7AAFF81
:101AB000002003B05DF804FB0269002AACD1826A01
:101AC00003685B68C3F308031380836A023383628D
:101AD000B1E703685B6803F07F031370A8E7FEF7C4
:101AE000FFFDE5E7022070470020704730B583B066
:101AF000044602681368D068516913F00F0505D1D8
:101B000013F0200F02D010F0200F19D12DB111F0D9
:101B1000010119D110F4907F16D1216B01297DD0DC
:101B200013F0800F03D010F0800F40F0198113F0F4
:101B3000400F03D010F0400F40F0168103B030BDCD
:101B40002046FFF760FFF9E713F0010F06D010F40D
:101B5000807F03D0626C42F00102626413F0040FD4
:101B600004D019B1626C42F00202626413F0020FF9
:101B700004D019B1626C42F00402626413F0080FE1
:101B800007D010F0200F00D119B1626C42F00802AA
:101B90006264626C002AD1D013F0200F02D010F0E2
:101BA000200F29D123685B6903F04003626C12F0B7
:101BB000080F00D163B32046FFF74CFD23685B6933
:101BC00013F0400F20D0226802F1140353E8003FC5
:101BD00023F04003143242E800310029F3D1E36BD3
:101BE00073B1634A1A65E06BFFF735FC0028A5D096
:101BF000E06B036D9847A1E72046FFF704FFD1E7AC
:101C00002046FFF7F6FE99E72046FFF7F2FE95E73C
:101C10002046FFF7EEFE002363648FE713F0100FFA
:101C20003FF47EAF10F0100F3FF47AAF0023019322
:101C30001368019353680193019B536913F0400F9C
:101C400052D0E26B13685B689BB2002B3FF476AF17
:101C5000A18D99427FF672AFE385D369B3F5807F9A
:101C600037D0226802F10C0353E8003F23F480735D
:101C70000C3242E800310029F3D1226802F114034A
:101C800053E8003F23F00103143242E800310029F9
:101C9000F3D1226802F1140353E8003F23F040031C
:101CA000143242E800310029F3D1202384F8423075
:101CB00000232363226802F10C0353E8003F23F062
:101CC00010030C3242E800310029F3D1E06BFFF73A
:101CD00078FB02236363A18DE38D9BB2C91A89B29D
:101CE0002046FFF78FFE29E7A18DE38D9BB2C91A2D
:101CF00089B2E38D9BB2002B3FF420AF00293FF463
:101D00001DAF226802F10C0353E8003F23F49073E7
:101D10000C3242E800300028F3D1226802F11403AB
:101D200053E8003F23F00103143242E8003000285A
:101D3000F3D1202384F8423000232363226802F188
:101D40000C0353E8003F23F010030C3242E800304C
:101D50000028F3D1022363632046FFF753FEEDE62C
:101D60002046FFF7A5FCE9E62046FFF735FEE5E64D
:101D7000F519000881628285C2850023436422230D
:101D800080F84230036923B10268D36843F480735A
:101D9000D3600268536943F0010353610268D3685A
:101DA00043F02003D3600020704708B590F842301C
:101DB000DBB2202B08D149B10AB9012008BD0023AC
:101DC0000363FFF7D7FFF9E70220F7E70120F5E704
:101DD00070B50646012402E004EB84046400B6FBFF
:101DE000F4F3092BF8D8B6FBF4F3094DA5FB032057
:101DF000C00800EB8000A3EB40003030C0B2FEF71B
:101E00002FFC2346A5FB0424E408092BEBD870BD66
:101E1000CDCCCCCC10B5041E03DB2046FFF7D8FF99
:101E200010BD2D20FEF71CFC6442F6E738B50546D0
:101E30000C46082904D9082402E03730FEF710FCCC
:101E400064B1013CE4B2A00025FA00F000F00F00FC
:101E50000928F2DC3030FEF703FCF1E738BD10B59D
:101E600004460078A0F12003DBB25E2B0ED90D28CA
:101E70000FD00A2814D05C20FEF7F2FB7820FEF782
:101E8000EFFB02212078FFF7D1FF10BDFEF7E8FB42
:101E9000FBE75C20FEF7E4FB7220FEF7E1FBF4E7D2
:101EA0005C20FEF7DDFB6E20FEF7DAFBEDE710B5F8
:101EB000044620B906E02046FFF7D1FF013423781D
:101EC000002BF8D110BD000010B50C46FFF7EFFF56
:101ED0003A20FEF7C5FB2046FFF79CFF3A20FEF7AD
:101EE000BFFB044B5868FFF7E2FF3A20FEF7B8FB50
:101EF00010BD00BF5C02002008B50146054B186804
:101F0000FFF7E2FF0448FFF7D2FF3A20FEF7A8FBF5
:101F100008BD00BF5C020020282F000838B5044629
:101F20000E4B9B688BB10E48FFF7C1FF0D48FFF7C2
:101F3000BEFF0A4DA868FFF7BAFFEB682BB10A484D
:101F4000FFF7B5FFE868FFF7B2FF2CB10448FFF7D1
:101F5000AEFF2046FFF7ABFF38BD00BF5C0200209C
:101F60005C2F0008042F0008102F000838B5054624
:101F70000C4611F0100F2FD0912902D0FFF74AFF25
:101F800038BD2720FEF76CFBA5F120035E2B11D98D
:101F90000D2D13D00A2D18D05C20FEF761FB7820A0
:101FA000FEF75EFB02212846FFF740FF2720FEF7E1
:101FB00057FBE5E72846FEF753FBF7E75C20FEF703
:101FC0004FFB7220FEF74CFBF0E75C20FEF748FB6E
:101FD0006E20FEF745FBE9E711F0200F02D0FFF776
:101FE000F7FECDE73020FEF73BFB7820FEF738FB0D
:101FF00004F00F0149002846FFF718FFC0E7000072
:1020000008B5104B5B6A5BB10E4AD3690133D361EB
:102010000C4B00221A625A620A20FEF721FB08BD0F
:10202000084B1B6A23B1074A936901339361EFE7B9
:10203000044B19691868FFF747FF0348FFF737FF9C
:10204000E6E700BF5C020020342F0008F8B50C461C
:102050009DF818701449096A39B905461646124A9E
:10206000526A12B9A04204D1F8BD01210F48FEF70F
:10207000B5F81846FFF740FF0D48FFF718FF39463F
:102080002846FFF773FF0B48FFF711FF394620463C
:10209000FFF76CFF3046FFF741FF03480121016263
:1020A0002830FEF79BF800BF5C020020840200206D
:1020B0001C2F0008602F000800B583B001900F4866
:1020C0004160026143690133436100238360C3605F
:1020D0002830FEF77DF840B10948FEF779F848B19D
:1020E000FFF78EFF03B05DF804FBFEF7F6FA019BE5
:1020F0009847F1E7FEF7F2FAF2E700BF5C02002032
:1021000084020020064B186000225A601A615A614E
:102110009A61DA611A625A629A60DA60704700BFA7
:102120005C02002010B50A20FEF79AFA1548FFF766
:10213000BEFE0A20FEF794FA134C6069FFF76AFEB0
:102140001248FFF7B4FEA069FFF764FE1048FFF7DE
:10215000AEFEE069FFF75EFE0E48FFF7A8FE0A201C
:10216000FEF77EFAA36943B90B48FFF7A0FE0A20E9
:10217000FEF776FA044B986910BD0848FFF797FE02
:10218000F5E700BFEC2E00085C020020542F000889
:102190003C2F0008482F0008302F0008282F000887
:1021A0004140C9B2024B33F8113083EA1020704726
:1021B000682F000860B110B48446074CBCE80F00DB
:1021C0000FC4DCF80030236000205DF8044B70473A
:1021D0006FF01500704700BF1000002010B4A0F190
:1021E0007D03DBB2012B06D913685C1C1460C85454
:1021F0005DF8044B704713685C1C14607D24CC545C
:1022000080F02000F0E782B010F0010F1FD010F036
:102210000C0F18D101238DF8003040099DF80130D2
:1022200060F302038DF80130BDF80030ADF80430E2
:1022300000209DF8043063F307009DF8053063F338
:102240000F2002B0704702238DF80030E5E700232D
:102250008DF80030C0F342009DF8013060F30203B6
:102260008DF80130E0E70378012B0BD0022B10D062
:102270000BB100207047407800F00700400040F0AC
:1022800010007047407800F00700400140F0010066
:102290007047407800F00700400140F009007047A7
:1022A0004FF6FF7343804FF0FF338360436000239A
:1022B0000361C360037070472DE9F84FDDF828A073
:1022C000DDF82C90002800F08F80884616461F46C7
:1022D0000546002900F08B80002A00F08B80BAF1BF
:1022E000000F00F08A80B9F1000F00F0898000240F
:1022F00006E0335D7E2B2BD0E8680130E8600134C6
:10230000BC423ED26B68002BF3DB321916F804B0E6
:10231000BBF17E0F26D0BBF17D0F4CD02B782BB1BB
:1023200000232B7092F800B08BF0200B5946688880
:10233000FFF736FF6880EA686B6802339A423DD047
:102340009A42D9DD2B695A1C2A610AF803B0D3E7F7
:102350007B1EA34203D933195B787E2BCFD0EB6869
:102360006B60C9E77A1EA24203D9321952787E2ADD
:10237000C5D00133EA689342C1D0AA600132BA42A3
:1023800017D06B68002B24DBAA68002A21DB0333FB
:102390009A4204DD6A884FF2B8039A421FD0C9F806
:1023A00000406FF004042846FFF77AFF2046BDE89E
:1023B000F88F0134E5E701232B709DE75846FFF7BE
:1023C00022FF00B288F80000C0F3072088F801005F
:1023D00092E70023C9F800306FF02204E6E72B698A
:1023E000023BC9F80030DEE76FF01504DEE76FF05E
:1023F0001504DBE76FF01504D8E76FF01504D5E797
:102400006FF01504D2E7000010B582B0049C01946F
:10241000009313460A4601460248FFF74DFF02B0FB
:1024200010BD00BF100000202DE9F04782B01E460D
:102430000A9F00230193002857D088469146824680
:1024400039B3002E54D0002F55D0012301937E23A1
:102450003370FF214FF6FF70FFF7A2FE044601AA7A
:102460003146FF20FFF7BAFE5046FFF7FCFE054657
:1024700001462046FFF794FE044601AA314628464D
:10248000FFF7ACFE9AF80030C3B1E443A4B20025D4
:102490001FE0002AD5D06FF0150023E018F80510D2
:1024A0002046FFF77DFE044601AA314618F80500D4
:1024B000FFF794FE01354D45F0D3E6E70025FAE736
:1024C000E80044FA00F001AA3146C0B2FFF786FEE8
:1024D0000135012DF4D9019A531C01937E21B15489
:1024E0003B60002002B0BDE8F0876FF01500F9E70F
:1024F0006FF01500F6E76FF01500F3E7DFF834D062
:10250000FFF77AF80C480D490D4A002302E0D45831
:10251000C4500433C4188C42F9D30A4A0A4C00232D
:1025200001E013600432A242FBD300F017F8FEF77B
:10253000EBF9704700000220000000208800002016
:10254000AC31000888000020F0020020FEE7000007
:10255000014B1868704700BF2400002070B50D4D76
:102560000D4C641BA4100026A64209D10B4D0C4C47
:1025700000F04AFC641BA4100026A64205D170BDE1
:1025800055F8043B98470136EEE755F8043B984769
:102590000136F2E7A4310008A4310008A431000894
:1025A000A831000802440346934200D1704703F863
:1025B000011BF9E700B59BB0009104916FF0004159
:1025C0000591029105490391694600F06FF8009B5F
:1025D00000221A701BB05DF804FB00BF0802FFFF69
:1025E00013460A46014602480068FFF7E3BF00BFF2
:1025F000240000202DE9F0478E689E4282460C465A
:1026000090461F4638D88A8912F4906F32D02568D8
:102610000969A5EB0109656905EB450505EBD5756C
:1026200001334B446D109D4238BF1D46530531D5D3
:10263000294600F043FB064650B90C23CAF8003087
:10264000A38943F04003A3814FF0FF30BDE8F0873A
:1026500021694A4600F0BEFAA38923F4906343F04F
:102660008003A381266165614E44A5EB09052660C0
:10267000A5603E46BE4200D93E46206832464146ED
:1026800000F0B6FAA3689B1BA36023683344236061
:102690000020DBE72A4600F06BFB06460028E1D16C
:1026A0002169504600F0BEFAC7E700002DE9F04F5F
:1026B00098468B891B069DB007460D4614460ED5DD
:1026C0000B6963B9402100F0F9FA2860286120B94C
:1026D0000C233B604FF0FF30D1E040236B610023BF
:1026E000099320238DF82930CDF80C803023DFF8B2
:1026F000A8818DF82A304FF0010923469A4613F835
:10270000012B0AB1252AF9D1BAEB040B0BD05B4699
:10271000224629463846FFF76DFF013000F0AA80B7
:10272000099A5A4409929AF80030002B00F0A280CE
:1027300000234FF0FF32CDE905230AF1010A04938B
:1027400007938DF853301A935446052214F8011B51
:102750005148FDF74DFD049AD8B9D00644BF202357
:102760008DF85330110744BF2B238DF853309AF85E
:1027700000302A2B15D0079A544600204FF00A0C3F
:10278000214611F8013B303B092B4ED9B0B10792DD
:1027900014E0A0EB080309FA03F313430493A246E1
:1027A000D2E7039B191D1B680391002BBBBF5B4243
:1027B00042F0020207930793B8BF049223782E2BAE
:1027C0000CD163782A2B35D1039B1A1D1B68039209
:1027D000002BB8BF4FF0FF3302340593DFF8C8A0D9
:1027E000217803225046FDF703FD40B14023A0EBC2
:1027F0000A0003FA00F0049B03430134049314F825
:10280000011B26488DF828100622FDF7F1FC002850
:1028100038D0234B1BBB039B073323F0070308333C
:102820000393099B3344099367E70CFB02320C4680
:102830000120A5E700230134059319464FF00A0C47
:10284000204610F8012B303A092A03D9002BC5D0B5
:102850000591C3E70CFB012104460123F0E703AB1C
:1028600000932A460F4B04A93846AFF30080421C60
:102870000646D6D1AB895B063FF52CAF09981DB053
:10288000BDE8F08F03AB00932A46064B04A93846F7
:1028900000F07AF8EBE700BF6831000872310008F9
:1028A00000000000F52500086E3100082DE9F04712
:1028B000164699468A680B69DDF820809342B8BFB6
:1028C0001346336091F8432007460C460AB10133A2
:1028D00033602368990642BF33680233336025684A
:1028E00015F0060506D104F1190AE36832689B1A4F
:1028F000AB4226DC94F84320131E226818BF012344
:1029000092062BD404F1430249463846C0470130B1
:102910001ED02368E568326803F00603042B08BF65
:10292000AD1AA36822690CBF25EAE575002593421C
:10293000C4BF9B1AED1800261A34B5421AD10020E4
:1029400008E00123524649463846C047013003D1CA
:102950004FF0FF30BDE8F0870135C6E7E1185A1C9B
:10296000302081F84300224494F8451082F8431047
:102970000233C7E70123224649463846C0470130A3
:10298000E6D00136D9E700002DE9FF470F7E0C9D08
:10299000782F914680460C469A4601F1430207D8AB
:1029A000622F0AD8002F00F0D880582F00F0A380A3
:1029B00004F1420584F842703AE0A7F16303152B55
:1029C000F6D801A151F823F0212A0008352A000881
:1029D000B1290008B1290008B1290008B12900086F
:1029E000352A0008B1290008B1290008B1290008DA
:1029F000B1290008412B0008652A0008232B000894
:102A0000B1290008B1290008632B0008B12900088A
:102A1000652A0008B1290008B12900082B2B0008FD
:102A20002B681A1D1B682A6004F1420584F84230A5
:102A30000123A3E020682968060601F104030AD5F2
:102A40000E682B60002E03DA2D23764284F8433083
:102A50005E480A2319E00E682B6010F0400F18BF83
:102A600036B2EFE72B682068191D2960010601D5F1
:102A70001E6802E04606FBD51E8854486F2F0CBF27
:102A800008230A23002184F843106568A560002DFF
:102A9000A2BF216821F0040121600EB9002D4DD0A4
:102AA0001546B6FBF3F103FB1167C75D05F8017D21
:102AB0003746BB420E46F4D9082B0BD12368DE07FC
:102AC00008D5236961689942DEBF302305F8013CCF
:102AD00005F1FF35521B2261CDF800A04B4603AA39
:102AE00021464046FFF7E2FE01304CD14FF0FF3067
:102AF00004B0BDE8F087354881F84570296823683F
:102B000051F8046B29601D0614D5DF0744BF43F05C
:102B1000200323601EB9236823F0200323601023C1
:102B2000B0E7236843F0200323607823284884F823
:102B30004530E3E7590648BFB6B2E6E71546BBE7BE
:102B40002B6826686169181D286035061B6801D549
:102B5000196002E07006FBD5198000232361154639
:102B6000BAE72B681A1D2A601D6862680021284692
:102B7000FDF73EFB08B1401B6060636823610023E2
:102B800084F84330A8E723692A4649464046D0479F
:102B90000130ABD023689B0713D4E068039B9842B5
:102BA000B8BF1846A4E70123324649464046D047FD
:102BB00001309BD00135E36803995B1AAB42F2DC2C
:102BC000EBE7002504F11906F5E700BF79310008AD
:102BD0008A3100080A44914200F1FF3300D1704766
:102BE00010B511F8014B03F8014F9142F9D110BD16
:102BF000884210B501EB020402D98442234607D86B
:102C0000431EA14208D011F8012B03F8012FF8E769
:102C1000024401468A4200D110BD13F8014D02F86A
:102C2000014DF7E737B5002944D051F8043C019035
:102C3000002BA1F10404B8BFE41800F0CFF81E4A3D
:102C40000198136833B96360146003B0BDE8304085
:102C500000F0CAB8A34208D9256861198B4201BFA8
:102C600019685B6849192160EDE71A465B680BB18A
:102C7000A342FAD911685518A5420BD12468214402
:102C80005418A3421160E0D11C685B685360214472
:102C90001160DAE702D90C230360D6E725686119D1
:102CA0008B4204BF19685B68636004BF49192160E7
:102CB0005460CAE703B030BDE0020020F8B5CD1C77
:102CC00025F0030508350C2D38BF0C25002D0646D0
:102CD00001DBA94203D90C2333600020F8BD00F0CA
:102CE0007DF821490A6814469CB9204F3B6823B9F6
:102CF0002146304600F062F838602946304600F040
:102D00005DF8431C23D10C233360304600F06CF88F
:102D1000E3E723685B1B17D40B2B03D923601C4408
:102D2000256004E06368A2420CBF0B60536030462C
:102D300000F05AF804F10B00231D20F00700C21A1E
:102D4000CCD01B1AA350C9E722466468CCE7C41C48
:102D500024F00304A042E3D0211A304600F02EF8FC
:102D60000130DDD1CFE700BFE0020020E402002007
:102D7000F8B5074614460E4621B9BDE8F84011469D
:102D8000FFF79CBF22B9FFF74DFF25462846F8BD47
:102D900000F030F8A0420FD221463846FFF78EFFF0
:102DA00005460028F2D031462246FFF713FF314690
:102DB0003846FFF737FFE9E73546E7E738B5064D10
:102DC0000023044608462B60FEF720FC431C02D17A
:102DD0002B6803B1236038BDE8020020014800F0F1
:102DE00011B800BFEC020020014800F00CB800BF91
:102DF000EC02002051F8043C181F002BBCBF0B58FC
:102E0000C018704770477047F8B500BFF8BC08BCE1
:102E10009E467047F8B500BFF8BC08BC9E46704798
:102E2000526563656976656420646174613A202542
:102E3000730A00004572726F72206465636F646983
:102E40006E67206672616D652025640D0A000000C2
:102E500074203D202564206275665F72783A0D0A01
:102E6000000000003078253032782C20000000006F
:102E70000D0A72656365697665645F6C656E203DF9
:102E80002025642072656365697665645F6461749A
:102E9000613A0D0A0000000048454C4C4F20574F46
:102EA000524C442121210D0A00000000436F72653D
:102EB0002F5372632F6D61696E2E63007465737496
:102EC0005F616464000000003635343332310D0A2E
:102ED00000000000000000000000000001020304E8
:102EE0000607080900000000010203042D2D2D2D06
:102EF0002D2D2D2D2D2D2D2D2D2D2D2D2D2D2D2D02
:102F00002D2D2D0046756E6374696F6E20000000D4
:102F100020417267756D656E7420000020457870E1
:102F200065637465642000004641494C0000000060
:102F30004F4B000050415353000000002046616990
:102F40006C757265732000002049676E6F7265644E
:102F50002000000020546573747320002E200000B0
:102F600020576173200000000000891112239B325A
:102F70002446AD573665BF74488CC19D5AAFD3BE49
:102F80006CCAE5DB7EE9F7F88110080193331A2259
:102F9000A5562C47B7753E64C99C408DDBBF52AE29
:102FA000EDDA64CBFFF976E802218B301002991339
:102FB0002667AF763444BD554AADC3BC588ED19F09
:102FC0006EEBE7FA7CC8F5D983310A209112180319
:102FD000A7772E66B5543C45CBBD42ACD99E508FE9
:102FE000EFFB66EAFDD874C904428D5316619F70E9
:102FF0002004A9153227BB364CCEC5DF5EEDD7FCC9
:103000006888E1997AABF3BA85520C4397711E60D8
:10301000A1142805B3373A26CDDE44CFDFFD56ECA8
:10302000E9986089FBBB72AA06638F7214409D51B8
:103030002225AB343006B9174EEFC7FE5CCCD5DD88
:103040006AA9E3B8788AF19B87730E6295501C4198
:10305000A3352A24B1163807CFFF46EEDDDC54CD68
:10306000EBB962A8F99A708B088481951AA793B678
:103070002CC2A5D33EE1B7F04008C919522BDB3A68
:10308000644EED5F766DFF7C899400859BB712A638
:10309000ADD224C3BFF136E0C1184809D33B5A2A48
:1030A000E55E6C4FF77D7E6C0AA583B41886919718
:1030B0002EE3A7F23CC0B5D14229CB38500AD91B28
:1030C000666FEF7E744CFD5D8BB502A499961087F8
:1030D000AFF326E2BDD034C1C3394A28D11A580B08
:1030E000E77F6E6EF55C7C4D0CC685D71EE597F4C8
:1030F0002880A1913AA3B3B2444ACD5B5669DF78E8
:10310000600CE91D722FFB3E8DD604C79FF516E4B7
:10311000A9902081BBB332A2C55A4C4BD7795E68C7
:10312000E11C680DF33F7A2E0EE787F61CC495D597
:103130002AA1A3B03882B193466BCF7A5448DD59A7
:10314000622DEB3C700EF91F8FF706E69DD414C577
:10315000ABB122A0B9923083C77B4E6AD5585C4987
:10316000E33D6A2CF11E780F232D302B2000686C74
:103170004C0065666745464700303132333435369A
:1031800037383941424344454600303132333435D3
:0C31900036373839616263646566000000
:08319C0024D1FF7F01000000B7
:0431A400B501000869
:0431A8009101000889
:1031AC00E803460001000000100000000024F400B9
:1031BC000000FFFFFFFFFFFFFFFFFFFF000000000D
:1031CC0000000000280000200000000000000000AB
:1031DC0000000000000000000000000000000000E3
:1031EC0000000000000000000000000000000000D3
:1031FC0000000000000000000000000000000000C3
:10320C0000000000000000000000000000000000B2
:10321C0000000000000000000000000000000000A2
:08322C0000000000000000009A
:04000005080024FDCE
:00000001FF
